:08000000803102288731FD2F39
:100E180021008F0122008F01080021000C142300FB
:100E28000C1408000F303D00A800FF302C009B0078
:100E38009A01C0309C00080021009E171E088F39B7
:100E480060389E001E11FC309E051D1408007C3081
:100E580020009B001C08FC3902389C001C158730B8
:100E68009C050800833021009D059D149D183D2F89
:100E78003E2F3A2F1C08F1001B08F0000800F4016F
:100E8800F501701C482F492F4D2F7208F40773087D
:100E9800F53D0130F235F30D890B4E2F0130F13657
:100EA800F00C890B532F70087104031D5C2F5D2F04
:100EB800452F7508F1007408F000080087312B27CA
:100EC800873187310C278731873120278731873150
:100ED80016278731873111278731873136278731A0
:100EE80071082000A9007008A8002908A100280896
:100EF800A0008731BD278731712F80310228FA0180
:100F0800FB017608770403198A2F8B2FB82F01303D
:100F1800FC00952F0130F635F70D890B8F2F013026
:100F2800FC07F71F982F992F8E2F0130FA35FB0DEC
:100F3800890B9A2F77087902031DA42F7608780267
:100F4800031CA72FA82FAD2F7608F8027708F93BC6
:100F58007A140130F736F60C890BAE2F0130FC02FB
:100F6800031DB72FB82F992F7B08F7007A08F600D2
:100F7800080020002108A3002008A2000630A3369C
:100F8800A20C890BC32F2208A4002308A5000F3048
:100F9800F6000030F7002508F1002408F000FF30C3
:100FA800F2000330F3008731432787317108F900D5
:100FB8007008F80087318327873177082000A70059
:100FC8007608A6002708A3002608A200A336A20CCC
:100FD800A336A20C22082C009B0020002608033907
:100FE800A2000630A235890BF62F22082C009A00A1
:080FF800080020008731622F80
:020000040001F9
:04000E00EA3FFB1EAC
:00000001FF
