:08000000803102288731FD2F39
:100F400021000C1423000C140800833021009D059F
:100F50001D149E17080021008F018D010130220011
:100F60008F008D010800833021009D059D149D1880
:100F7000BA2FBB2FB72F1C08F1001B08F000080088
:100F80008731AB2787318731A02787318731A52764
:100F900087318731B32787317108F6007008F50073
:100FA0007608F1007508F0008731DA278731C92FFC
:100FB000803102287108F3007008F2000730F33620
:100FC000F20C890BDF2F7208F0007308F10001307A
:100FD000F200700AEC2FF235890BEB2F7208F40047
:100FE00074080F3922008F007408F2000430F236C2
:100FF000890BF72F72088D00080020008731C02F61
:020000040001F9
:04000E00EA3FFB1EAC
:00000001FF
