:0400000080311A2809
:100008007E1480312000911C0A280B281828911092
:100018000130F0000030F100013022008F00013083
:10002800F035F10D890B14287E10090080311C2849
:10003800F5017E10200080316F28013022008F00EA
:100048008D018031472080312C2803108F0D252801
:10005800083022000F06031D3228332829288F0173
:1000680001308D008031472080313D2803108D0DEF
:100078003628083022000D06031D432844283A2854
:100088008D0121280800F301F4012000911C4D285E
:100098004E28492891100130F3070030F43D7408C8
:1000A800803AF20080307202031D5C287D307302B2
:1000B800031C5F286028492808000D3020009C0098
:1000C8001C15FC309C0578309C047C309B009110FA
:1000D80021009114080080317A208031803161201C
:1000E800803180312120803180311A2821008F0110
:0A00F8008D0122008F018D01080028
:020000040001F9
:04000E00EA3FFB1EAC
:00000001FF
