:08000000803102288731FD2F39
:100F780021008D018F0122008D018F0122008D013A
:100F88000F308F008731D32787310F3022008D0033
:100F98008F018731D3278731C22F80310228003053
:100FA800F3000030F2000030F1000030F000730868
:100FB800031DE82F403070020D30713B0330723B47
:100FC800031CE72FE82FE92FFC2F0130F007003032
:100FD800F13DF23DF33D7308031DFC2F40307002D4
:100FE8000D30713B0330723B031CFB2FFC2FE92FA4
:080FF800080020008731BC2F26
:020000040001F9
:04000E00EA3FFB1EAC
:00000001FF
