:0400000080314928DA
:100008007E1480312000911C0A280B2847287D3057
:10001800F0000030F1007708013EF2000030783D32
:10002800F3008031542080317108F8007008F7001F
:1000380077087804031D21282228452804307B02EC
:1000480003182728282834280130F6007B0A2D2891
:10005800F635890B2C28760822008F008D0141285F
:100068000130F6007B08FC3E890A3B28F635890BEF
:100078003A28760822008D008F017B08013E073957
:10008800FB00200091107E10090080314B28F701F9
:10009800F801F901FA01FB017E1020008031B62831
:1000A800F501F31F582859286028F209F309F20AC4
:1000B8000319F30A0130F500F11F63286428692841
:1000C800F009F109F00A0319F10A7008710403191B
:1000D8006E286F2896280130F40079280130F03511
:1000E800F10D890B73280130F407F11F7C287D2856
:1000F800722871087302031D832870087202031C9A
:10010800862887288B287008F2027108F33B013093
:10011800F136F00C890B8C280130F402031D952868
:1001280096287D28750803199A289B28A028F20983
:10013800F309F20A0319F30A7308F1007208F000D0
:1001480008000D3020009C001C15FC309C05783000
:100158009C047C309B009110210091140B178B1785
:10016800911408008031BF2080318031A520803172
:10017800BC288031492821008F018D0122008F0180
:040188008D010800DD
:020000040001F9
:04000E00EA3FFB1EAC
:00000001FF
