:08000000803102288731FD2F39
:100F780021000D1423000D10080021008F01FF30FF
:100F88008D00013022008F008D0108007C30200088
:100F98009B001C15FC309C0578309C0408000F3021
:100FA8003D00A80003302C009B009A019C171C12DE
:100FB8009C120C303D00A20008008731C127873100
:100FC8008731D32787318731CA2787318731BC27B3
:100FD800873120000D18F12FF22FF72FFF302C004A
:100FE8009B009A01ED2F03302C009B00F52F8031D8
:080FF800022820008731E12FDF
:020000040001F9
:04000E00EA3FFB1EAC
:00000001FF
