:08000000803102288731FD2F39
:100F0E0023009D171D169E16080014303D00A600E6
:100F1E0017303C00A400080023001E121E119F155E
:100F2E009C0133309B000800F0002000111EA02F02
:100F3E00A12F9C2F700823009A00080021008E1705
:100F4E0023008E130E1321000E13803022008E000C
:100F5E00080087318C2787318731A5278731873164
:100F6E00932787318731872787310800F601F701EC
:100F7E00CE2F7108760784007208773D8500000831
:100F8E0087319B2787310130F6070030F73D770810
:100F9E00803AF5007408803A7502031DD82F730845
:100FAE007602031CDB2FDC2FC02F08008731B02701
:100FBE0087311030FA000030FB000030F10088302D
:100FCE00F2007B08F4007A08F3008731BD278731E1
:100FDE000B30F9002630F8005E30890BF42FF80B39
:100FEE00F42FF90BF42FE42F8031022820008731E3
:100FFE00DD2F483465346C346C346F342C3420342B
:10100E0057346F3472346C346434203421340A34DF
:04101E000D34003459
:020000040001F9
:04000E00EA3FFB1EAC
:00000001FF
