:0400000080314428DF
:100008007E1480312000911C0A280B284228911068
:100018000130F4070030F53D003075020230031955
:100028007402031C182819284228F401F5017708DE
:10003800780403192028212831280130F2070030DC
:10004800F33D00307302FF3003197202031C2D28A0
:100058002E283F28F701F8013F280130F20200302E
:10006800F33B72087304031D3A283B283F280130EC
:10007800F7000030F8008031592080317E100900E7
:1000880080314628803198208031F70080319920CE
:100098008031F800F001F101F201F301F401F501FA
:1000A800F6017E10200080317D287308FA0072085E
:1000B800F900FA36F90CFA36F90C79082C009B008D
:1000C80072080339F9000630F935890B6828790870
:1000D8009A000800F93020009B001C08FC390238FF
:1000E8009C0087309C051C15210091140B178B1759
:1000F800080080319320803180318920803180311F
:100108006E2080318628803144280F303D00A800B9
:10011800FF302C009B009A01C0309C000800210091
:0C0128008F0122008F0108000134003418
:020000040001F9
:04000E00EA3FFB1EAC
:00000001FF
